:020000040000fa
:10000000f0ff0320d168010003730100e7750100d0
:100010005f8101009f8401000f8e0100000000003d
:10002000000000000000000000000000b1c7010057
:100030003b78010000000000a18601009dbe010088
:1000400017570100175701001757010017570100f4
:1000500017570100175701001757010017570100e4
:1000600017570100175701001757010017570100d4
:1000700017570100175701001757010017570100c4
:1000800017570100175701001757010017570100b4
:1000900017570100175701001757010017570100a4
:1000a0001757010017570100175701001757010094
:1000b0001757010017570100175701008bdc01008b
:1000c00095dc010017570100175701001757010071
:1000d0001757010017570100175701001757010064
:1000e0001757010017570100000000000000000032
:1000f000000000001757010055ea000055ea000013
:1001000055ea000055ea0000c98f0100c98f0100bf
:10011000c98f0100c98f010017570100175701004f
:100120001757010017570100175701001757010013
:100130001757010017570100175701001757010003
:1001400017570100175701001757010017570100f3
:1001500017570100175701001757010017570100e3
:1001600017570100175701001757010017570100d3
:1001700017570100175701001757010017570100c3
:1001800017570100175701001757010017570100b3
:1001900017570100175701001757010017570100a3
:1001a0001757010017570100175701001757010093
:1001b0001757010017570100175701001757010083
:1001c0001757010017570100175701001757010073
:1001d0001757010017570100175701001757010063
:1001e000175701001757010017570100c1bd010043
:1001f0001757010017570100175701001757010043
:100200001757010017570100175701001757010032
:100210001757010017570100175701001757010022
:100220001757010017570100175701001757010012
:100230001757010017570100175701001757010002
:1002400017570100175701001757010017570100f2
:1002500017570100175701001757010017570100e2
:04026000175701002b
:020000040000fa
:10026400f8b500bff8bc08bc9e467047f9a501006c
:10027400f8b500bff8bc08bc9e467047d5a5010080
:020000040000fa
:08028400849b00000100000052
:020000040000fa
:10028c002de9f04f8db00f210a201af0cffb029010
:10029c0010f0010f40f06685029b13f0020f40f046
:1002ac0085850db0bde8f08fd9f8187007f11002f4
:1002bc00059213f4007f21d1fb6809933b690a93e3
:1002cc0000228df82c2006238df82d30330a43eaba
:1002dc000623adf82e300c2109a817f0affcc04353
:1002ec0083b2d9f8202012f0040f30d032464146a8
:1002fc00484616f07ffd002840f0a486404617f0d3
:10030c00f4fe98f80cb04fea1b1b4fea8b030493d6
:10031c00d9f81cb0bbf80220002a00f09686fd89a3
:10032c00bb891d44bbf800301d445540adb2c74bd2
:10033c00d3f800c0bcf1000f00f08a86d9f828e091
:10034c00c34b1b68039300239a4610460ee01a46d3
:10035c003146404617f072fccde7b4f87220824269
:10036c002fd001331bb21c469c452fd9039a52f84f
:10037c002440002cf5d094f876200b2af1d094f878
:10038c0077100129edd8a16c09b18e45e9d1002a6d
:10039c00e3d0b4f87220aa42e3d1dbf80010226e4d
:1003ac009142ded1216cfa689142dad1012184f8b4
:1003bc007710c4f848e0059a20461af061fea24670
:1003cc0022e0baf1000f08bfa246cae7baf1000f4b
:1003dc0000f08380fb68caf8403001218af877105e
:1003ec00caf848e0059a50461af04afeaaf872502c
:1003fc00bbf80030aaf86030bbf80230aaf86230c3
:10040c00daf80030caf81030d9f810209389049922
:10041c005b1a938198f80d40d8f80870d8f80450fe
:10042c009af83f3013f0400f5bd19af875306ff3a8
:10043c0000038af875309af87630002b69d0012bbe
:10044c0000f09e801436049aa6eb020b1ffa8bfb6d
:10045c00abf1140292b2059214f0010206921abf8b
:10046c00abf1130b1ffa8bf2059a039214f0020fe7
:10047c0003d0039a013292b20392daf81c60daf8d4
:10048c0020209642c0f0aa80daf81810daf814008e
:10049c00091aa6eb020ba1eb0b0b1ffa8bf20492c1
:1004ac00daf85820a5eb020b039a002a00f0a98079
:1004bc00049a002a00f0a080bbf1000fc0f29680d5
:1004cc009345c0f0a780039a04998a1a8b45c0f211
:1004dc00a180934540f39e808ee06ff00e0100f0fa
:1004ec003dbc00238af879309af83e3013f0020fa5
:1004fc009bd11bf085ffbaf87020564b1b6803fb91
:10050c0002f3554aa2fb032300eb9310caf8240014
:10051c008be714f0040f1ad114f0100f1dd114f046
:10052c00020f27d00135caf85850404613f05ffe31
:10053c00aaf86a0050461af067f9012212215046b7
:10054c0003f024f802238af876300026e6e3002133
:10055c0050460df043fe0026e0e3caf8547000222a
:10056c000421504603f012f8002150460df036fedf
:10057c000026d3e3002150460df030fe0026cde3db
:10058c0014f0040f40f0c98314f0100f00f0aa858a
:10059c00daf85460b74205d114f0020f40f05f85d1
:1005ac000026bbe3caf8547001220421504602f025
:1005bc00edffcaf854600026b0e31bf021ffbaf837
:1005cc007020244b1b6803fb02f3234aa2fb03237a
:1005dc0000eb9313caf8243000f060bda2eb060bbd
:1005ec000bf1ff3b1ffa8bf2049259e703990a4671
:1005fc00594400293ff768af14f0040f1fd00026b0
:10060c008ce3bbf1000f05d0bbf1000ff4db049ab7
:10061c009345f1da14f0060f20d114f0100f00f00e
:10062c009983023b072b00f2cc81dfe813f0290001
:10063c003e003e003e003e00ca013e00bd010122cc
:10064c001021504602f0a2ff002667e38cda00204e
:10065c0088da002090da0020d34d621014f0040fd9
:10066c0008d09af83f3043f002038af83f304ff439
:10067c00006600e00026002150460df0affd4de372
:10068c00daf85460b74205d103238af876304ff478
:10069c0080760be0caf8547001220421504602f017
:1006ac0075ffcaf85460002638e30026daf81010fb
:1006bc00daf808305a1a13d4daf854003b1a9b1a99
:1006cc00002b1dddbaf8742002f40172042a01d14a
:1006dc00012b0cd000221021504602f057ff1de3d5
:1006ec00daf80430daf800001b1a1a44e4e7013097
:1006fc00caf854009af8753043f002038af8753042
:10070c00daf85430daf80c20881a914249d2daf827
:10071c000420daf80010521afb1a0344d31807937a
:10072c00002b07dddaf80430daf800209b1a079a60
:10073c009a4246d9daf83830002b40f0a280daf829
:10074c000c20daf808309a4200f0d980b8f80e3054
:10075c00baf86e209a4238bfaaf86e30daf85420f4
:10076c00b8f80e303b449b1a9bb2baf8641031b9fe
:10077c002bb19af83e1041f040018af83e10aaf8cd
:10078c0064309af87630042b00f0f080062b40f0a1
:10079c001981974240f0c282002150460df01efd97
:1007ac00bce2fb1a03440793002b07dddaf8043094
:1007bc00daf800001b1a0798984202d99142bed071
:1007cc00b8e740f2dc53caf834301bf019fedaf803
:1007dc003420c44b1b6803fb02f3c34aa2fb032364
:1007ec0000eb9313caf838309af83e306ff3451388
:1007fc008af83e30daf80c10079b0b44caf80c3020
:10080c00daf8102091420ed893421cd99a1adaf8d1
:10081c0054100a44caf85420caf81030daf80420ec
:10082c00934224d313e0daf80410daf80000091a22
:10083c000a44934207d99a1adaf854100a44caf8af
:10084c005420caf81030daf80420934205d3daf8b1
:10085c000010511a5b1acaf80c30daf810309342b7
:10086c0005d3daf80010521a9a1acaf810209af81e
:10087c007630032b02d0082b7ff461af46f00406d0
:10088c005de71bf0bdfddaf83830c31a002bfff61c
:10089c0056afdaf834305b00b3f57a4f28bf4ff41b
:1008ac007a43caf834301bf0abfddaf834208d4ba8
:1008bc001b6803fb02f38c4aa2fb032300eb93138c
:1008cc00caf83830daf81010daf80c20881adaf88e
:1008dc0054301b1acaf85430914207d2daf804107b
:1008ec00daf80000091a5b1acaf85430caf810205a
:1008fc009af83e3043f080038af83e301fe79af8ae
:10090c003f3013f0010f19d113f0400f06d19af8b4
:10091c003e306ff341038af83e3017e71bf070fd51
:10092c00baf870206f4b1b6803fb02f34ff47a721a
:10093c00b3fbf2f30344caf82430e8e7daf8543096
:10094c009f427ff403af9af8743013f0040f3ff416
:10095c00fdae9af83e306ff341038af83e309af8b8
:10096c003f306ff300038af83f30efe6974203d035
:10097c0014f0200f35d0d1e19af8743013f0040f35
:10098c00f6d01bf03dfd574b1a6841f2883303fb40
:10099c0002f34ff47a72b3fbf2f30344caf830302b
:1009ac0005238af87630e3e7daf8543001339f42b6
:1009bc0001d00026b2e1002150460df00ffc0026bc
:1009cc00ace1002614f0200f40f0a8819af87620b4
:1009dc00a2f10803dbb2012b40f2a081062a00f041
:1009ec009d81059a002a3fd0bbf1000f7edd059b4f
:1009fc005b44049a934203dda2eb0b039bb2059379
:100a0c0098f80c301b0908eb83030893daf81c10d8
:100a1c00daf81830059a5a440a44934280f0f4806c
:100a2c005a1a0132b2eb0b0200f1df801ffa82f886
:100a3c0001240094434608a802465944484616f03f
:100a4c0090fd0490059aa2eb080300949bb208aaaf
:100a5c00daf81410484616f084fd049b034498b24f
:100a6c00059b834200f0d980039bcbb19af876307a
:100a7c00033bdbb2022b84bfdaf81c30caf82030ff
:100a8c009af83e3013f0100f40f0fa809af83e308e
:100a9c0043f010038af83e3013f0080f00f0f68094
:100aac00069b002b00f03a81daf858300133039a98
:100abc002a44934240f03281caf8583046f480669a
:100acc009af83f3043f004038af83f309af87630b6
:100adc00023b032b00f20781dfe813f0ec00f5007a
:100aec00fe00150190da0020d34d621098f80c30fe
:100afc001b09cbeb8303434408935a4493b2049ae7
:100b0c009a4228bf1a469346daf81c10daf81830c5
:100b1c008a18934259d25b1a01330493bdf81080a2
:100b2c0001240094434608aa484616f01afd059085
:100b3c00abeb080300949bb208aadaf814104846f1
:100b4c0016f00ffd059a024490b2049babeb030325
:100b5c00daf814201344584586d1daf85810594461
:100b6c00caf85810caf81c309af87620033ad2b258
:100b7c00022a98bf46f40076daf85c20b2f1ff3f07
:100b8c003ff472afa2eb0b0bcaf85cb0baf868205a
:100b9c0012eb0b0224d4bbf1000f3ff765af1144ed
:100bac00caf858101344caf81c30daf818209342cb
:100bbc0006d9daf81410521ad2431344caf81c306e
:100bcc004ff0ff33caf85c304ee7012300935b46cd
:100bdc0008aa484616f0c5fcdaf81c305b44bae7a4
:100bec004ff0ff33caf85c303ee70bf1ff30daf818
:100bfc0014209b1ac01a01230093059b08aa0144d8
:100c0c00484616f0aefc2be701230093059b08aa7f
:100c1c005944484616f0a5fc22e7daf85c30b3f1eb
:100c2c00ff3f15d09b4519d2059a02eb0b01baf880
:100c3c006820d018814205d88b4203d8a0eb0b0357
:100c4c009bb20593059baaf86830caf85cb00be719
:100c5c00caf85cb0059baaf8683005e7baf86820ba
:100c6c001a4405980146594491427ff6fdae9345ce
:100c7c003ff6faaeabeb03031844aaf86800f3e6b0
:100c8c0001221021504602f081fc09e7dbb243f04f
:100c9c0008038af83e301bf0b3fbb64b1a6864238a
:100cac0003fb02f34ff47a72b3fbf2f30344caf87a
:100cbc002c30f5e609238af87630012211215046b2
:100ccc0002f064fc2ae008238af876309af8753032
:100cdc0013f0010f07d021e0daf854309f4208d00e
:100cec0006238af8763001221021504602f04efc81
:100cfc0014e000221021504602f048fc002150461e
:100d0c000df06cfa0ae000221021504602f03efc75
:100d1c00002150460df062fa00e0002600201cf085
:100d2c0025fbdaf87c50daf88070baf87a40014684
:100d3c0000201cf059fc14ea060200f08c81002df6
:100d4c0000f08b813b46d9f82810baf93c00a84733
:100d5c00022103e00026e1e76ff00d010a2248466c
:100d6c001af094fc0a201af0f9ff814600283ff48f
:100d7c0093aab9f82c60132eeed9d9f81c8098f8e8
:100d8c000c301b09042b0bd9b6eb830f0bdbd9f8fa
:100d9c00203013f400343ff487aa6ff00e01dde726
:100dac006ff00d01dae76ff00d01d7e7724b1b689e
:100dbc00002b3ff476aa00252b46dff8c091dff814
:100dcc00c0a1dff8b481e7e01bf01afba36ac01adc
:100ddc000028a8bf1026f5e01bf012fbe36ac01a2e
:100dec000028c0f2f58094f87630052b00f08b814a
:100dfc00102687f001023146204602f0c7fbefe0d7
:100e0c001bf0fefa236bc01a0028c0f2e680012208
:100e1c001421204602f0bafb002120460df0def929
:100e2c00b2e094f83e6006f001060121204614f071
:100e3c0086f894f83e3043f0010384f83e304ff4ca
:100e4c0080520021204618f065fb002e40f09c805b
:100e5c0094f83e306ff3000384f83e300a2384f894
:100e6c00763091e01bf0ccfa636ac01a0028c0f20d
:100e7c008b8094f876104b1e082b00f28380dfe8f1
:100e8c0003f00541556081688181700094f87830d9
:100e9c00032b40f22c81042384f87830354b1a68ec
:100eac004ff47a7303fb02f3aafb03239b091b0188
:100ebc0023650221002694f87830013384f87830c9
:100ecc00236d5b0023652069e268831a9bb2904214
:100edc0004d260682768c01b03449bb2606dc01ac3
:100eec006065b4f864000344a4f864302261002205
:100efc00204602f04bfb002e46d0002120460df080
:100f0c006df941e094f87830022b40f2f28094f8bd
:100f1c003e6006f001031e46002b18bf1421002f63
:100f2c00c9d10122204602f031fbe4e794f8783075
:100f3c00042b40f2e080042384f876301121002643
:100f4c00ede794f87830042b40f2d7801421012679
:100f5c00e5e794f87830042b40f2d1801421012677
:100f6c00dde794f87830042b40f2cb801421012675
:100f7c00d5e700bf90da00208cda002088da002058
:100f8c00d34d6210002e5ad101352db22b46d8f814
:100f9c0000209542bff485a9d9f8002052f82340cf
:100fac00002cf1d094f876300b2bedd094f83e3029
:100fbc0013f0c0061abfdf091026002713f0040f28
:100fcc007ff402af94f83e3013f0080f7ff404afb7
:100fdc0094f87630052b3ff413af002e7ff409af55
:100fec0094f83e3013f0020f7ff43caf94f83f308e
:100ffc0013f0400fc8d094f87630032bc4d11bf0fb
:10100c00fff9636ac01a0028bedb94f8792094f8c3
:10101c0084309a423ff405af02221021204602f0a0
:10102c00b5fa1bf0edf9b4f870203b4b1b6803fbd1
:10103c0002f3aafb032300eb93106062a4e7314692
:10104c0000266ce76ff0090188e66ff00e0185e66b
:10105c006ff00e0182e6022180e602217ee6013568
:10106c00caf85850b8f80e30aaf86e30aaf86430a6
:10107c00404613f0bcf8aaf86a00504619f0c4fbbd
:10108c0001221021504602f081fa03238af87630af
:10109c009af83f3013f0400f7ff48faa9af83e3045
:1010ac006ff341038af83e304ff4807636e6013513
:1010bc00caf85850b8f80e30aaf86e30aaf8643056
:1010cc00404613f094f8aaf86a00504619f09cfbbd
:1010dc0001221221504602f059fa02238af8763086
:1010ec0000261be614f0020fe1d1002616e60221c1
:1010fc00e0e61221dee61021dce61121dae6102111
:10110c00d8e61121d6e61bf07bf9236bc01a002818
:0c111c00bff67dae10266ce690da0020d5
:020000040000fa
:101128002de9f04f2ded028b9bb00f21212019f0f6
:101138007ffc002800f0b8867d4b1b68002b40f32d
:10114800b3867c4c0026dff820929fed7b8ab9e3ba
:10115800d4f8c4305d6894f8d1202ab3227c012adf
:1011680042d0022a61d1b4f93830b3f1ff3f25d01b
:101178000023724a4ff40071b4f9380019f025f8c9
:10118800d4f8bc200221b4f938000ff0adfc30b916
:10119800d4f8c4301b681b6869492846984706215b
:1011a800204618f093f886e31b681b6865492846b3
:1011b80098470121204618f089f87ce304f1800261
:1011c800618a012013f066ff2087b0f1ff3fcfd17d
:1011d800d4f8c4301b681b685b492846984701212e
:1011e800204618f073f866e304f18002618a012052
:1011f8001cf029fda087b0f1ff3f0ad00023534a15
:101208004ff4807119f004f80321204618f05ef8b5
:1012180051e3d4f8c4301b681b684d4928469847e9
:101228000121204618f052f845e31b681b6849491c
:10123800284698470121204618f048f83be3d4f89f
:10124800c430d3f804b03b4be31adb1003ebc30202
:1012580003eb4203c3eb432303eb8343c3f1000acd
:1012680097e0d4f8c4301b681b683b495846984738
:101278000421204618f02af81de3b4f93c001bf0bd
:101288001ffb18e30133c4f8943028461bf03afbdf
:1012980002460b46d4e908010af069f8c4e90801d6
:1012a800002f19dba36ae26a511c8b4231d09342aa
:1012b80020dc616b01f1010161632cd020e0d4f8de
:1012c800c4301b685b68254958469847236b013b27
:1012d800a26a1344236391e07f42a7621bf092f84d
:1012e800c4f88c00002384f8cc300421204617f081
:1012f800edffd7e75b1a226b13442363a36ae3620b
:101308000c3dadb2002d44d0dff858804ff4c867cb
:1013180036e0934206d1d4f8c4301b681b681049e4
:1013280058469847a36ae26a9342e9dde7e700bfb7
:1013380084da002028d0002000007a449dd50100de
:1013480040800000f87f00001c80000087d5010065
:10135800688000008c800000a4800000c480000029
:10136800f080000060b9002038d700203a46414696
:10137800b4f93c0011f0f8fea5f5c865adb245b169
:10138800b5f5c86ff2d22a46d149b4f93c0011f03c
:10139800ebfeb4f93c001af0f5fe05460b2878d9a7
:1013a8000c224946b4f93c0011f0defe0c287ff40b
:1013b80058afd9f800301f0e47ea03671a0202f443
:1013c8007f0217431b0a03f47f431f43a762d4f825
:1013d8009430002b7ff456af002ffff64eaf012359
:1013e800c4f89430d4f8c4301b685b685246b949d5
:1013f80058469847a26a002a7ff461afa36ae3625d
:1014080005a9b4f93c0011f049f8b4f93c001cf006
:10141800b5fa1bf006fc069dd4f8c4301b68628a36
:101428000292020e0192c0f3074200925f68c0f375
:101438000723c2b2a8495846b847d4f8c4301b6835
:10144800bdf8582002922a0e0192c5f30742009275
:101458005f68c5f30723eab2a0495846b8476564f0
:10146800bdf85830a4f864301af0ccffc4f88800ee
:10147800c4f8a800a36ac4f89c30d4f89430c4f81f
:101488009830236bc4f8a030b4f93c001bf018fa6c
:101498007fe7d4f894304bb994f8cf30012b40f063
:1014a8000a820421204617f011ff04e21af0aaff6d
:1014b800d4f8a830c31a22689342edd9d4f89420fe
:1014c800d4f898309a4212d1d4f8c4301b681b68fb
:1014d8008349584698471af095ffc4f88c000023b2
:1014e80084f8cc300421204617f0f0fed4e7002120
:1014f800204608f02dffcfe7b4f93c001af042fe71
:1015080038b994f8cf304bb10921204617f0defee8
:10151800d1e1b4f93c001bf0d3f9cce10521204618
:1015280017f0d4fec7e194f8cd30002b00f0bd8051
:10153800b4f93c001af026fe002840f0be8094f86a
:10154800cc305a1c84f8cc200a2b00f2bb808021b6
:10155800b4f93c001cf0acfb002800f0ac81e36a55
:101568005b421a0e42ea0362190201f47f010a4340
:101578001b0a03f47f431343c9f800300025c9f858
:101588000450c9f808508023c9f80c30c9f8105025
:10159800d4e908011bf03ef9020e42ea0062030298
:1015a80003f47f031a43030a03f47f431343c9f880
:1015b80014301af04fffd4f88c10d4f88830c91ab8
:1015c800b1fbf0f31a0e42ea03621f0207f47f0729
:1015d8003a431f0a07f47f473a43c9f8182000fb2b
:1015e800131307ee103ab8ee477a27ee087a07ee9b
:1015f800900af8ee676ac7ee267a67ee887afceefc
:10160800e77a17ee903a1a0e42ea0362190201f4d9
:101618007f010a431b0a03f47f431343c9f81c30b4
:10162800236b1a0e42ea0362190201f47f010a438e
:101638001b0a03f47f431343c9f82030636b1a0e67
:1016480042ea0362190201f47f010a431b0a03f408
:101658007f431343c9f82430e36a1a0e42ea03624f
:10166800190201f47f010a431b0a03f47f43134361
:10167800c9f82830c9f82c50c9f8305034224946e6
:10168800b4f93c0018f0a9fa4c273a46294605a8af
:101698001cf0b8f83a4605a9b4f93c0018f09dfad0
:1016a800b4f93c0009f042fd05e10221204608f0aa
:1016b8004ffe012384f8cd303ae7b4f93c001bf023
:1016c800fff8f8e00921204617f000fef3e000bf1c
:1016d80060b9002028810000102101004421010088
:1016e8001081000094f8cf30012b26d0b4f93800cf
:1016f8001af077ff002800f0de803822002105a8c4
:101708001cf080f805a9b4f9380015f0effe04f1d3
:10171800400705ad0fcd0fc70fcd0fc70fcd0fc7b2
:1017280095e8030087e803000721204617f0cefd5f
:10173800b4f938001af06ffcbde00921204617f013
:10174800c5fdb8e0d4f8c4305f68b4f938001cf0bf
:10175800a5f80546002865d0a36a002b49d1bd4be2
:10176800e31adb1003ebc30203eb4203c3eb43238f
:1017780003eb8343d4f8c4201268d2f804805a4299
:10178800b5493846c0471af03dfec4f88800c4f889
:10179800a800a36ac4f89c30b4f938001cf0e6f835
:1017a8001bf03ffad4f8c4301b68628a0292020e1a
:1017b8000192c0f307420092d3f80480c0f30723d4
:1017c800c2b2a6493846c047d4f8c4301b68b4f83a
:1017d8006420029294f84720019294f846200092df
:1017e800d3f8048094f8453094f844209c4938464e
:1017f800c047a36a0133a362d4f894200132c4f825
:101808009420e36228461bf07df802460b46d4e993
:10181800080109f0acfdc4e90801dff848824ff47b
:10182800c8671ce0b4f938001af0f5fb20b9b4f920
:1018380038001bf0bafed8b11af0e4fdc4f88c00e9
:101848000821204617f042fd35e03a464146b4f9f2
:10185800380011f07bffa5f5c865adb245b1b5f507
:10186800c86ff2d22a467f49b4f9380011f06effea
:10187800a36a63b994f8cf30012b1cd10821204604
:1018880017f024fd1af0befdc4f88c0013e01af01e
:10189800b9fdd4f8a830c31a22689342ead90021c6
:1018a800204608f055fde5e794f8cd30c3b309218b
:1018b800204617f00bfd0136d8346b4b1b68b3423a
:1018c80040f3f28294f8ce30012bf4d0023b102b77
:1018d80000f2e58201a252f823f000bf591100007e
:1018e80047120000011500002f150000ed1600003a
:1018f8004d170000b118000039190000d519000073
:10190800011a0000f11b0000d71c00005b1d00003d
:10191800811e0000011b0000f11d0000971e000041
:101928000221204608f014fd012384f8cd30bee7db
:10193800d4f8c4305f68237c012b29d0022b2cd02b
:10194800444be31adb1003ebc30203eb4203c3eb84
:10195800432303eb83435d42d4f8c4301b685b68c0
:101968002a46424938469847204618f053f894f8d2
:10197800d130012b19d0d4f8c4301b685b682a46d3
:101988003b49384698470121204617f09ffc92e7cb
:10199800b4f93c0019f00cffd2e7b4f9380018f09c
:1019a800edff4ff6ff732387cae794f8cf30002b7b
:1019b800e1d1d4f8c4301b685b682a462d49384603
:1019c80098470221204617f081fc74e7d4f8c80034
:1019d8001bf0d6fb032808d10b21204617f076fc14
:1019e8001af010fdc4f8ac0065e704f14401d4f81e
:1019f800c80018f030fcefe7d4f8c4305d6894f8fc
:101a0800cf20012a17d0d4f8c8001bf0b9fb03284f
:101a18001bd094f8443003f0f003e02b2ed1237c44
:101a2800012b64d0237c022b7ff445af0c21204688
:101a380017f04cfc3fe71b681b680f49284698477e
:101a48000121204617f042fc35e70022a267a4f8de
:101a58007c20e4e728d00020288100001021010024
:101a68004421010060b9002084da0020548100007c
:101a7800b881000084810000d881000004f1780258
:101a880004f14401d4f8c80014f0def9b8b1d4f870
:101a9800c4301b6894f87d20039294f87c2002924d
:101aa80094f87b20019294f87a2000925f6894f869
:101ab800793094f87820bf492846b847afe71af03c
:101ac800a1fcd4f8ac30c71a1af0c4fc00eb8000b3
:101ad80087427ff6f0aed4f8c4301b681b68b6495d
:101ae800284698471af08efcc4f8ac00e3e61021ab
:101af800204617f0ebfb95e7d4f8c4305d6804f195
:101b08004402618a01201cf0a3f8a087b0f1ff3fce
:101b18005ed00023a94a4ff4807118f079fbe2687f
:101b28000521b4f93c0006f095f830b9d4f8c43072
:101b38001b681b68a2492846984702220621b4f967
:101b48003c0006f087f830b9d4f8c4301b681b682d
:101b58009c4928469847d4f8c810b4f93c0016f0b8
:101b6800cdfd05a9b4f93c0010f098fcbdf85a3039
:101b7800a4f87e30d4f8c4301b681b689249284604
:101b88009847d4f8c4301b68628a029294f84720b8
:101b9800019294f8462000925f6894f8453094f8d2
:101ba80044208a492846b8471121204617f08efb61
:101bb8001af028fcc4f88800d4f884300344c4f828
:101bc80090304ff4c862552181481bf01bfe72e625
:101bd800d4f8c4301b681b687e4928469847012101
:101be800204617f073fb66e6d4f8c4305d6800221f
:101bf800618a01201bf09dfa6087b0f1ff3f51d048
:101c08000023754a4ff4007118f0dffad4f88030d9
:101c1800002b53d104f1440300220121b4f93a0006
:101c280017f0a3fc4ff48063a4f87e30d4f8c430d6
:101c38001b681b68644928469847d4f8c4301b6859
:101c4800628a029294f84720019294f84620009202
:101c58005f6894f8453094f8442060492846b847ae
:101c68000d21204617f032fbd4f8b8200321b4f92f
:101c78003a000ef039ff30b9d4f8c4301b681b683d
:101c88004f4928469847b4f93a0019f070ff1af0fe
:101c9800b9fbc4f8ac004ff4c86254214c481bf09f
:101ca800b1fd08e6d4f8c4301b681b684c492846c7
:101cb80098470121204617f009fbfce504f1800351
:101cc800628a0121b4f93a0011f0d6fea2e794f82d
:101cd800cf30012b19d0d4f8c4305f68b4f93a007a
:101ce8001af07ffcb0b1b4f93a001af094f91af07e
:101cf80089fbc4f88800d4f884300344c4f89030d1
:101d08000e21204617f0e2fad5e50f21204617f0fc
:101d1800ddfad0e51af076fbd4f8ac30c51a1af023
:101d280099fb00eb800085427ff6c5adb4f93a0017
:101d380018f024fe4ff6ff736387d4f8c4301b688d
:101d48001b682849384698470f21204617f0befae5
:101d5800b1e5204605f098fd01280bd002287ff454
:101d6800aaad0f21204617f0b1fa1af04bfbc4f8c0
:101d78008c00a0e5164f00bfb4f8b0508db1b5f592
:101d8800c86f28bf4ff4c8652a463946b4f93a00e7
:101d98000cf0e0fab4f8b0301b1aa4f8b030854261
:101da800ead9b4f93a001af02ffc20460bf03cfab5
:101db80081e500bf38820000f881000087d5010066
:101dc800648200008c820000ecc50000b482000030
:101dd80060b90020688000009dd50100ec820000f9
:101de8001c80000024830000227d0b21b4f93c00f4
:101df80005f030ff204605f047fd01280bd00228ea
:101e08007ff459ad1221204617f060fa1af0fafa59
:101e1800c4f88c004fe5b4f8b05015b30027dff8cc
:101e280094a0a846b5f5c86f28bf4ff4c8684246c5
:101e38005146b4f93c0017f0d0fe0744bfb22d1a42
:101e4800adb2804501d1002debd1b4f93c0009f0c9
:101e58006df940b900221146b4f93c0018f0f5fcc0
:101e680029e52f46f1e7b4f8b030df1ba4f8b070cd
:101e780020460bf0d9f91ee5204615f0dbfcb4f935
:101e88003a0018f07bfd4ff6ff73638713e5204691
:101e980015f0d0fcb4f93c0019f08afc0be50121df
:101ea800204617f013fa06e51bb0bdec028bbde81f
:081eb800f08f00bf60b90020ab
:020000040000fa
:101ec00030b585b0044690f990305bb194f990300c
:101ed000022b00f0328494f80c31002b40f0848403
:101ee00005b030bd4ff6ff711af0ccfe94f8dc302f
:101ef000042b00f21c84dfe813f005008b00d900ee
:101f00000501fc0294f90830b3f1ff3f57d094f873
:101f10000421012a22d051b229b1022a43d0ff2341
:101f200084f89030dce003f01f01c3f34a1303f59b
:101f3000020000f580700022012303fa01f1c001c4
:101f40001bf022fe1bf0f4fe18f048fec4f8e4007b
:101f500094f80431013384f80431cfe01bf0e8fe3b
:101f600018f03cfed4f8e430984200f0c78094f9b1
:101f7000083003f01f0201219140c3f34a1303f517
:101f8000020000f580700a46c0011bf0fdfd1bf049
:101f9000cffe18f023fec4f8e40094f804310133b6
:101fa00084f80431aae01bf0c3fe18f017fed4f841
:101fb000e430c31a062b94bf002501258fe094f866
:101fc00004312bb1012b16d0ff2384f8903087e029
:101fd00000230193b34a009201220321d4f8f400b4
:101fe0001af0a5fc002800f0898094f80431013330
:101ff00084f8043182e000230193aa4b009301236b
:102000001a460321d4f8f4001af091fc054666e064
:10201000d4f8f40094f80431042b43d8dfe813f02b
:1020200005008b0313008b033300002200929e4bac
:1020300001211af062fe002860d094f804310133c7
:1020400084f804315ae0d4f8ec309a0ac3f3091347
:10205000b2f5f87f01d11b2b07d09449002016f070
:10206000b7f9ff2384f890303ae0002200928e4bbb
:102070008f491af042fe002840d094f80431013311
:1020800084f804313ae0d4f8ec3003f00f0384f81c
:1020900006312bbb8749002016f09af9ff2384f8fc
:1020a00090301de0ff2384f8903027e094f804116d
:1020b000c1f12002002300937f4b92b27f4800ebd6
:1020c0000111d4f8f40012f0dffc94f80451054437
:1020d000edb284f80451202d14bf002501256db107
:1020e000002384f8043194f8dc300133dbb284f847
:1020f000dc30052b04bf022384f8903020461bf00f
:102100005ff9e3e6d4f8f40094f804312e2b00f2e2
:10211000e981dfe813f02f002f002f002f002f00a0
:10212000e701e701e701e701e7014800480048004f
:1021300048004800e701e701e701e701e7016d001a
:102140006d006d006d006d00e701e701e701e7013b
:10215000e7018800ec019a00ec01b000ec01dd0021
:10216000ec01f300ec01090131014e01720197010c
:10217000bc01dc010093402303aa0521204612f094
:1021800099f805460028aad0039b23b10a2384f8b6
:1021900004310025a3e74a49002016f019f9ff236e
:1021a00084f890309be70a3bdbb200931f2303aa1d
:1021b0000421204612f07ef8054600288fd0039bac
:1021c00013f0100f18bf43f0e0035bb284f8f8304f
:1021d00013f1050f04db142384f8043100257ee796
:1021e0003749002016f0f4f8ff2384f8903076e7a2
:1021f000143bdbb200931f2303aa0821204612f0f0
:1022000059f8054600283ff46aaf039b13f0100ffe
:1022100018bf43f0e0035bb284f8f9301e2384f862
:10222000043100255be7002300931f4b0122254961
:102230001af063fd054600283ff451af94f80431cd
:10224000013384f80431002549e7d4f8ec30a4f8d0
:10225000fa3000230093144b01221b491af04dfd64
:10226000054600283ff43baf94f80431013384f86d
:102270000431002533e7d4f8ec30a4f8fc30002317
:102280000093094b012211491af037fd0546002839
:102290003ff425af94f80431013384f8043100256c
:1022a0001de700bf0b0c0100b9bc0100046f010069
:1022b00094000a002c6f010091d60100acc600000a
:1022c000446f0100840004008a000400ad00040093
:1022d000d4f8ec30a4f8fe3000230093b94b01226f
:1022e000b9491af00afd054600283ff4f8ae94f803
:1022f0000431013384f804310025f0e6d4f8ec30e1
:10230000a4f8003100230093ae4b0122af491af02c
:10231000f4fc054600283ff4e2ae94f804310133a2
:1023200084f804310025dae6d4f8ec30a4f8023160
:1023300094f9f8309bb203f1090291b203f10e0255
:1023400092b2120142ea8122b4f8fa3003f00f038c
:102350001a43002301930093012392b29c491af07f
:10236000e6fa054600283ff4baae94f8043101338a
:1023700084f804310025b2e694f9f93028339bb291
:10238000b4f8fc20c2f3090242ea8322002301933d
:102390000093012392b28f491af0c9fa054600282a
:1023a0003ff49dae94f80431013384f804310025e4
:1023b00095e694f9f8309bb25a1d91b2b4f8fe201c
:1023c00022f47c5222f03f0242ea012212b292b27f
:1023d00009331a43002301930093012392b27e49eb
:1023e0001af0a5fa054600283ff479ae94f80431b6
:1023f000013384f80431002571e694f9f8309bb27a
:1024000003f1090291b2b4f8002122f47c5222f0c7
:102410003f0242ea012212b292b20e331a43002363
:1024200001930093012392b267491af080fa05469e
:1024300000283ff454ae94f80431013384f8043199
:1024400000254ce694f9f8309bb203f1110291b2e9
:10245000b4f8022122f47c5222f03f0242ea012227
:1024600012b292b216331a43002301930093012350
:1024700092b256491af05bfa054600283ff42fae97
:1024800094f80431013384f80431002527e694f8e8
:102490000651002301930093012345f6217243f670
:1024a00031719d4218bf0a464c491af040fa054660
:1024b00000283ff414ae94f80631012b3ff40fae20
:1024c00094f80431013384f80431002507e6002331
:1024d0000193009301234ff4404241491af027fa37
:1024e0000546fce5ff2384f890300025f7e500253c
:1024f000f5e5d4f8f40094f80431092b00f21381c7
:10250000dfe813f00a0025003a004c007a00990039
:10251000b000cf00e8000501637e1bb9042384f8f6
:102520000431ebe5a17d627d002301932d4b0093e7
:10253000012342ea01222c491af0f9f900283ff45c
:10254000ddad94f80431013384f80431d6e5e17d42
:10255000227e00230193234b0093012342ea0122b0
:1025600022491af0e4f900283ff4c8ad94f8043188
:10257000013384f80431c1e500230193194b009322
:10258000012383221a491af0d2f900283ff4b6ad8c
:1025900094f80431013384f80431afe5002301934a
:1025a000104b009301234ff4004212491af0bff977
:1025b00000283ff4a3ad94f80431013384f80431ca
:1025c0009ce500bfb9bc0100ae000400af000400f0
:1025d000840004008a000400ad000400d000040060
:1025e000e000040091d6010002ca040005ca0400fc
:1025f0008700040001ca040094f8953094f89420f0
:10260000120442ea036294f892301a4394f8931049
:10261000002301937d4b0093012342ea01227c4970
:102620001af085f900283ff469ad94f804310133bc
:1026300084f8043162e594f8971094f8962000230a
:102640000193724b0093012342ea012271491af06f
:102650006ef900283ff452ad94f80431013384f848
:1026600004314be594f8973094f89620120442ea2e
:10267000036294f894301a4394f895100023019360
:10268000624b0093012342ea012263491af04ff999
:1026900000283ff433ad94f80431013384f8043159
:1026a0002ce5a37e002b4ff000030193574b0093c2
:1026b0004ff0010314bf102200224ff001111af055
:1026c00036f900283ff41aad94f80431013384f848
:1026d000043113e5e17e49f2260249f2262300295e
:1026e00018bf1a46237f0bb142f480720023019376
:1026f000464b0093012304211af019f900283ff4f6
:10270000fdac94f80431013384f80431f6e400237d
:102710000193424b009301230c224ff480311af0b5
:1027200006f90546dbe4ff2384f89030d8e4ff2364
:1027300084f89030e2e40025d1e4637e2bbbd4f82a
:10274000f030002b3fd194f90750c5f34a1000f543
:10275000020000f58070c0011bf037fb05f01f057b
:1027600020fa05f515f0010f7ff4b5ab4ff6ff71b8
:1027700020461af087fa0021d4f8f40005f086ff0d
:1027800020461af01dfefff7a6bb1bf0d1fa18f089
:1027900025fad4f8e830c31ab3f57a7fcfd3c4f85a
:1027a000e8004ff6ff7120461af06cfa0023009300
:1027b0001b4b01221b49d4f8f4001af09efa204664
:1027c0001af0fefdbbe71bf0b3fa18f007fad4f8d5
:1027d000f030c01a6328b6d90023c4f8f030d4f81a
:1027e000f4001bf025faaee74ff6ff7120461af011
:1027f00049fa002384f80c310121d4f8f40005f0e3
:1028000045ff20461af0dcfdfff76abb91d60100b8
:1028100024000100250001002200010089d20100ee
:0828200041c8010003ca0400d5
:020000040000fa
:102828002de9f04f8db0d0f850a00a68436d846d43
:1028380083ea040e0eea0a0e8eea040ed84bc46c24
:1028480023440a9213449e440aeb7e6e4e68436dfd
:102858008aea030707ea0e075f40d24b856d2b44cf
:10286800009633441f440eeb37578b681a468aeaa2
:102878000e053d4085ea0a05cb4b446d2344019281
:1028880013441d4407ebf535cb681c468eea070652
:102898002e4086ea0e06c54b5344029423441e4438
:1028a80005ebb6260b691c4687ea050333407b40d7
:1028b800bf4a039422449644734406eb73694a69f9
:1028c800134685ea060404ea09046c40b94a0493ed
:1028d8001a4417443c4409eb34548b6986ea0902cc
:1028e80022407240b44f05931f443d442a4404ebf0
:1028f800f232cf6989ea040808ea020888ea090876
:10290800ae4d06973d442e44b04402ebb8280f6afa
:1029180084ea020c0cea080c8cea040ca84d079710
:102928003d4409eb05039c4408eb7c6c4d6a82ea44
:10293800080909ea0c0989ea0209a24b08952b44ff
:102948001c44a1440ceb39598b6a88ea0c0e0eea38
:10295800090e8eea080e0993a3f524434f3b1a4447
:10296800964409ebfe3eca6a16468cea090505ea52
:102978000e0585ea0c05944b1344984445440eeb28
:10298800b525d1f8308089ea0e072f4087ea090774
:102998008e4b43449c44674405eb7767d1f834c0b9
:1029a8008eea05033b4083ea0e03894a6244914458
:1029b8004b4407eb3353d1f8389085ea07041c40a1
:1029c8006c40844a4a449644744403ebf434d1f886
:1029d8003ce087ea030222407a407f4971440d4473
:1029e8002a4404ebb22284ea020b0bea030b8beabb
:1029f800040b7a49009d29440f44bb4402ebfb6b4e
:102a080082ea0b07274057407549059d29440b4426
:102a18001f440bebf7578bea0703134083ea0b03ba
:102a280070490b9631440c44234407ebb34387eabf
:102a3800030505ea0b057d406b490a9c21440a44bd
:102a4800154403eb353583ea05023a405a40674995
:102a5800049e31448b445a4405ebf26285ea020134
:102a680019406940624c099e34442744394402ebba
:102a7800f15182ea01042c4054405e4f77443b44b4
:102a88001c4401ebb44481ea040313404b405a4f01
:102a9800039e37443d442b4404eb333384ea030b51
:102aa8000bea010b8bea040b544d089e35442a446b
:102ab800934403ebfb6b83ea0b0727405f40504ac4
:102ac8004a4411440f440bebf7578bea07051d40a6
:102ad80085ea0b054b4a02990a441444254407eb3e
:102ae800b54587ea050202ea0b027a404649079e85
:102af80031440b441a4405eb323285ea02033b4069
:102b08006b40424961448b445b4402ebf36382eac5
:102b18000301294051403e4c019e34442744394426
:102b280003ebf15183ea010414405c40394f069edf
:102b380037443d442c4401ebb44481ea040b0beace
:102b480003054d40344f47443a44154404eb3535aa
:102b5800049fa7f5b822a2f2be6213448bea050bc4
:102b68005b4405eb337384ea05025a402b4f079efa
:102b780037443944114403eb715185ea030b8bea5e
:102b8800010b274a0b9f3a4414445c4401eb34443c
:102b980083ea01076740234a4a4415442f4443e027
:102ba80078a46ad756b7c7e8db702024eecebdc13b
:102bb800af0f7cf52ac68747134630a8019546fd16
:102bc800d8988069aff7448bbed75c892211906b87
:102bd800937198fd8e4379a62108b44962251ef6a3
:102be80040b340c0515a5e26aac7b6e95d102fd639
:102bf8005314440281e6a1d8c8fbd3e7e6cde1210e
:102c0800d60737c3870dd5f4ed145a4505e9e3a96e
:102c1800f8a3effcd9026f678a4c2a8d81f6718779
:102c280022619d6d0c38e5fd04eb772781ea0402eb
:102c38007a40944d009e35442b44134407eb33737c
:102c480084ea07025a40904d039e354429441144b2
:102c580003eb715187ea030b8bea010b8b4a069d44
:102c68002a441444a34401eb3b4b83ea010282ea61
:102c78000b02874c099d2c4427443a440beb7222e3
:102c880081ea0b045440834d65442b44234402ebf2
:102c980033738bea02075f407f4c0a9e3444214419
:102ca8000f4403eb775782ea03057d407b49029c7a
:102cb80021448b445d4407eb354583ea070b8bead7
:102cc800050b7749059c21440a44934405eb7b2b6b
:102cd80087ea050484ea0b04724a08990a441344f3
:102ce8001c440beb347485ea0b0161406e4b434482
:102cf8001f44394404eb71518bea04034b406b4a7f
:102d0800724415441d4401eb354584ea01026a40ca
:102d1800674b019f3b449b445a4405eb722262ea8d
:102d280001036b40634f37443c44234402ebb363d5
:102d380063ea050b8bea020b5f4c069f3c44214477
:102d48008b4403ebbb5b6bea02075f405b4949447a
:102d58000d442f440beb774767ea030484ea0b041e
:102d68005749049d29440a44144407ebf42464eaaf
:102d78000b057d40534a424413441d4404ebb5659a
:102d880065ea070888ea04084f4b02990b449b44fc
:102d9800d84405ebb85868ea04036b40099aa2f5d1
:102da8008016a6f683363e44334408eb734363ea41
:102db800050989ea08094549009e31440c44a144a3
:102dc80003ebf92969ea08065e40414a07990a4473
:102dd80015442e4409ebb66666ea030181ea090147
:102de8003c4a72449044414406ebb15161ea0904fb
:102df8007440394a059d2a4413441c4401eb744429
:102e080064ea06054d40354b634499444d4404eb50
:102e1800f52565ea01076740314a039b1a441644c1
:102e2800374405ebb76767ea04036b402d4a0b9eee
:102e380032441144194407ebb15161ea05067e405a
:102e4800294a019b1a441444344401eb7444c36c6a
:102e58003b44c36464ea07074f40244b089a134471
:102e68001d442f440aeb040505ebf7250565436d62
:102e78001c444465836d1944816500200db0bde88c
:102e8800f08f00bf44eabea4a9cfde4b604bbbf66f
:102e980070bcbfbec67e9b28fa27a1ea8530efd456
:102ea800051d880439d0d4d9e599dbe6f87ca21f42
:102eb8006556acc4442229f497ff2a43a72394ab50
:102ec80039a093fcc3595b6592cc0c8fd15d848586
:102ed8004f7ea86fe0e62cfe144301a3a111084e13
:102ee800827e53f735f23abdbbd2d72a91d386eb0f
:020000040000fa
:102ef800b14b834240f03a83b04b93f90020531e04
:102f0800dbb2012b00f232832de9f04f85b0ac4bd8
:102f18001b685bb1012a1ad0a94b1c68a64b1b88f9
:102f2800002b00f015830025a34e79e0a54b1b6804
:102f380068469847002800f3ee8220b9009810b13f
:102f480003f0b6fee7e29d4b00221a70e3e29e4bc7
:102f58001b68b3f1ff3fdfd19c4a002101201af022
:102f680027f8994b1860b0f1ff3f2cd019f072fa8e
:102f780000f2e733964aa2fb03239b094ff47a76c3
:102f880006fb03f3b3fbf0f6924b1e600225924c4e
:102f980004e001351034282d00f0d1822368002b7d
:102fa800f7d0b4f90a20002af3d02146a8b219f0c4
:102fb80061f90028edd106f5a673b3fbf6f306fb1d
:102fc80003f6864b1e601af0f9fd88b912f00af96b
:102fd8007a4bff221a701af0f1fd002800f09b824c
:102fe8001af0e6fd4ff0ff327d4915f0edf992e257
:102ff8001af0defd01227b4915f0e6f9e6e7032326
:1030080004222146304615f0ddfa94f8433043f0a7
:10301800800384f8433001356c3431888d424bdab3
:10302800e06c0028f7d0636c9b69984794f84330ac
:1030380013f0400fefd0636c5b69e06c9847002891
:10304800dddb0228e7d10023009301930293039369
:1030580040f2dc53adf80a30636c1b6c6946206d96
:1030680098470098e063bdf80430a4f84030bdf8f4
:103078000630003318bf012394f8432063f3451248
:1030880084f84320bdf80a30a4f85e309df80d306e
:1030980084f860309df80c3084f8613094f8423040
:1030a80043f0400384f84230d3b203f0bf0343f047
:1030b800800384f84330aee7404b93f90030012b8e
:1030c80027d0002015f0bafd474b1b6833b9474b92
:1030d8001a68474b1b68134300f01d82424b1b685c
:1030e800002b40f08b800026404b1b68002b00f023
:1030f80089813e4b00221a60314b1c682e4b1b887d
:10310800002b00f021811746dff8ec90dff8a8804b
:10311800e9e02b4b1e68002900f02082324600258a
:103128002b46012706e007fa03f0054301336c320a
:10313800994212d092f8430000f00c04042cf2d10a
:1031480010f0800f00f0e78192f8420010f0400f75
:10315800ecd007fa03f00543e8e7012303fa01f18d
:103168000139a94200f0fa81134b1b88abb1002446
:1031780044f24008104f0ae003230422314638463f
:1031880015f020fa01346c363b889c4205dab6f813
:10319800423018ea030ff5d0eee7084bff221a7009
:1031a8001af00cfd002800f0b6811af001fd2a463d
:1031b800104915f009f9aee1acd80020add90020ce
:1031c800e4da0020e8da0020d0db0020b5c10100f5
:1031d800d34d6210dcda0020a8cb0020d8da00201a
:1031e800dc2f0100ac2f0100d0da0020ecda00203f
:1031f800d4da00204c300100ccda00200025b84b8e
:103208001d601af0e1fc044618f0dafb06460f468a
:1032180022462b4618f064fcb24b1860b24aa2fb57
:10322800043292092b463046394618f059fcaf4b08
:103238001860af4b1b68af4a12689b1aab4203dd9c
:10324800ab4a136001264fe703f24d13a84a1360f7
:10325800a94b1c68a94b1b88002b00f06681002530
:10326800a64e0ee094f8623043f0020360f3820346
:1032780060f3000384f8623001356c3433889d4272
:103288000fda94f8423013f0400ff5d0636c5b6aa4
:10329800206d984794f8623003f001039842e1d119
:1032a800eae7012620e7012623e700254ff0010a77
:1032b80004e08c622a46504616f022fe636c5b6b73
:1032c8002a462946206d984701460028f1d1d9f8a9
:1032d80000300133c9f800302ce001376c34b8f8fd
:1032e8000030bb4230dd94f8423013f0400ff4d088
:1032f800b4f85a50636c5b6d206d98470543adb2c6
:1033080001201af035f8b4f85a3023ea0503a4f876
:103318005a30014601201af069f9b4f85c302b43a1
:10332800a4f85c30636c1b6d2946206d984715f036
:10333800160fbad194f8433013f0200fcdd0636c38
:103348009b6b206d9847c8e74ff000086c4d6d4f98
:1033580007f10809284619f0f7fc0446002845d06b
:1033680063699a89130a43ea02239bb240f606026c
:10337800934216d0b3f5006f0fd04ff6ff72934209
:1033880006d001226ff00c01204618f081f9e1e720
:1033980007f1100a4ff0020b06e0ca464ff0010b86
:1033a80002e04ff0000bba46236a23f47c13236231
:1033b800daf804201343236200222146baf80200f7
:1033c80016f09efd0028dcd0012303fa0bfb1bea54
:1033d800080fbfd148ea0b08baf8020000221946c4
:1033e800494b03eb001018f0f5feb3e7012019f084
:1033f800bfff454a138b23f00103138301460120c5
:103408001af0f4f83c4b1b683c4a108820b30022a1
:1034180040f2866514463d4f09e03968013139604c
:103428000ee0a3f85c4001326c33824214d093f86a
:10343800421011f0400ff6d0b3f85c100d42ecd1f9
:1034480093f8621011f0020febd093f862106ff34b
:10345800410183f86210e4e7002e6bd12a4b03f197
:10346800300403f52478002629e01344a3810022c0
:103478000221204618f0aefe1034ac420fd023686b
:10348800002bf9d0b4f90a20002af5d03168a389b5
:103498005b1a9bb219b20029e7dda181ece7012094
:1034a80019f066ff184a138923f0020313810146b5
:1034b80001201af09bf8d1e71034444528d0304653
:1034c80019f056ff54f8105c34f8087c0146304671
:1034d8001af08cf8002defd0002fedd0a847ebe7bd
:1034e800d0da0020c4da0020d34d6210c0da002000
:1034f800d8da0020dcda0020e4da0020acd800209a
:1035080034d3002070ca010088cb0020c8da00201c
:10351800174b1b6813b905b0bde8f08f00224ff4b4
:103528008071144819f056fcf5e7134b1b68002b03
:103538007ff4b9ae114c124e04f518759fe706f5e5
:10354800a673b3fbf6f306fb03f60e4b1e60e3e42b
:103558000d4b93f90030012b7ff4b3ad0a4b0222d7
:103568001a700a49002018f0fbf9aae5704700bf55
:10357800d4da002098cb0020ecda0020a8cb002079
:10358800dcda0020d8da0020add900201c30010098
:020000040000fa
:1035980090f87730012b40f0be822de9f04786b0d5
:1035a80004460e469146002019f0e2fee26c002a1d
:1035b80000f0c082136a13f0080f40f0bb8243f09a
:1035c80008031362e76c014600201af00ff8002f79
:1035d80000f0b4820023a7f85630a7f85430bb6433
:1035e800a7f86e30a7f86c303b663a6913603a6901
:1035f800938116f0010f07d094f83f3043f0010390
:1036080084f83f3006f0fe0694f83e3003f02303ba
:103618006ff3451384f83e3094f87730012b0cbfd4
:10362800fd6900252b7b6ff307132b7316f0060f2c
:1036380040d016f0020f00f0038102238df81430f9
:1036480004238df8153094f87730012b1bd0002017
:10365800030a43ea0023adf81630a4f86c002b7b6c
:10366800c3f30312013262f307132b7394f8773014
:10367800012b04bf059b6b61636da3b14ff000087c
:10368800e0e0e76476e2a36c2bb1a06c19f02efca5
:10369800143880b2dce7204616f055ff0028f4d134
:1036a8006ff0030082e1204610f0ccfb60654ff01c
:1036b8000008c7e0b4f86a80a26823699a4200f05b
:1036c8005e82b4f86430002b00f0aa8094f877305a
:1036d800012b2dd0b4f86c30984528bf9846a368c4
:1036e80021698b423cd95b1ab4f864a09a4528bf7b
:1036f8009a46d04506d294f83e3043f0800384f8c9
:103708003e30c24694f87730012b16d023695344d3
:10371800236194f83f3013f0010f00f08380b4f870
:10372800643053457ed0d0457cd046f0010679e020
:103738001af045fb0028d2d1cce70023bb6459b16d
:103748001ffa8af3a7f85630a7f8543039653b6951
:1037580007f148021a60d9e73b6900221a60d5e7e9
:103768006268521a206813441b1ab4f864a09a4578
:1037780028bf9a46d04506d294f83e3043f08003dd
:1037880084f83e30c2461346524528bf5346baeb2a
:1037980003022cd094f877c0bcf1010f0ad023693a
:1037a8005344236162689342b3d32168521a9b1a27
:1037b8002361aee7a0b192b2a7f86e20a7f86c20fb
:1037c800b86607f16002ba6469b19bb2a7f85630cf
:1037d800a7f8543039653b6907f148021a60dee7fb
:1037e8000022ba64f0e73b6900221a60d7e794f830
:1037f8007720012ad3d10022ba6451b19bb2a7f82d
:103808005630a7f8543039653b6907f148021a6009
:10381800c5e73b6900221a60c1e74ff0000a7ee75e
:103828004ff0000a1ffa8af8baf1000f0ad0b4f86c
:103838006430a3eb0803a4f8643046f0080606e0f9
:103848004ff0000816f0030f45d04ff0000a19f0aa
:10385800010f0dd0002384f87830b44b1a684ff468
:103868007a7303fb02f3b24aa2fb03239b09236585
:1038780018f0c8fd236d1844606294f83e3043f098
:10388800020384f83e30b4f862302b80b4f860301c
:103898006b80636d6b60a36dab602b7b6ff3030371
:1038a8002b736e7300236b822b82636d53446365a5
:1038b80016f0020f45d016f0100f04bf0023ab60be
:1038c80094f8743013f0080f2fd06b68013b6b60cd
:1038d8004ff0040937e019f0020f0ad094f8793054
:1038e800013384f87930636d013b63654ff0010a59
:1038f800c9e794f83e3013f0020f13d019f0010f06
:1039080008d194f878302bb1013b84f87830236dd6
:103918005b08236518f076fd236d184460624ff04c
:10392800000ab0e74ff0000aade7636d0133636545
:1039380094f8743043f0080384f874304ff00409a5
:1039480001e04ff0000916f0010f05d094f874302b
:1039580043f0040384f8743016f0100f05d094f87f
:10396800753043f0010384f87530e369226a9342a5
:1039780026d3a1696069091a9b1acb1a9bb2eb81fd
:10398800a4f86630284614f0b2fb2b7bc3f303126d
:10399800053262f307132b7394f87730012b13d099
:1039a800b8f1000f40f081804ff0ff3094f8773085
:1039b800012b40f084803b6a23f008033b627ee0e1
:1039c800d31a013b9bb2dae7236c23b90025b8f17f
:1039d800000f6dd06ae0204616f0b5fd05460028b8
:1039e800f5d009f11409636cbb63236cfb63a36c0a
:1039f8003b643a6993894b449381fd6900232b8288
:103a0800a36c93f8603013f0010f18d094f8853048
:103a18008df8053094f886308df8043000258df83f
:103a2800065009eb080201ab92b2062138460bf0aa
:103a3800bfff3d6038461af08bf80546c7e7bb6bf9
:103a48000293fb6b039300228df8102006238df858
:103a5800113009eb08039bb2190a41ea0323adf8b8
:103a680012300c2102a814f0ebf8c24392b2494676
:103a7800284614f0e5f8c3439bb2b8f1000f07d10c
:103a880039690a8a22f008020a82db432b82bde7e1
:103a980039690a8a42f008020a824246396d384674
:103aa80013f0aaf9c3439bb2efe70025a36b4bb110
:103ab800002d3ff479af16f0040f14d1002006b0a2
:103ac800bde8f08740f2dc53636318f09bfc626b3f
:103ad800164b1b6803fb02f3154aa2fb032300ebfa
:103ae8009310a063e4e7002019f042fce56fd4f8d6
:103af8008070b4f87a600146002019f077fd85b12e
:103b080016f0080f0fd03b460822a16cb4f93c0010
:103b1800a8470020d3e76ff0010070476ff002005c
:103b2800cde70020cbe70020c9e700bf90da0020ee
:103b3800d34d62100146002019f058fd144b0422a1
:103b48001421782018f0caf807460028e6d0114b4f
:103b58008360c4600123a0f87030a0f85830036a6d
:103b680043f008030362002019f002fce36c002b09
:103b78003ff487ad0146002019f038fd39e594f887
:103b88003f3013f0010f7ff448ae4ff0000859e6bc
:083b980006002000a914010041
:020000040000fa
:103ba0002de9f04f8db08246894600230893099392
:103bb0000a930b9343680393aa4b1968002940f3b7
:103bc000b8829346a84b93f8ce30012b00f0b88210
:103bd0000023a54d0133d8358b4200f0aa8295f819
:103be000ce20012af6d1a04beb1adb1003ebc30267
:103bf00003eb4203c3eb432303eb8343daf80020d8
:103c000054685a4299490398a047002485f8d14046
:103c100002232b7485f8cf4041f289336b82944b99
:103c2000ab6118f01bfc04906c6000eb80035b0040
:103c3000ab6028602c75c5f8c4a0284615f0eefed0
:103c4000b9f1010fc8bf012411dc95f8d130002b68
:103c500000f0e581012b00f01d820db0bde8f08f72
:103c6000012385f8d1300134e4b24c45edda5bf83c
:103c7000246002227f49304619f0e4f90028efd091
:103c800005227d49304619f0ddf90028e8d00222ee
:103c90007a49304619f0d6f928b1052278493046dc
:103ca00019f0d0f910b901232b74dce70222754911
:103cb000304619f0c7f930b105227349304619f082
:103cc000c1f900285cd101232b741c44e4b25bf8d9
:103cd0002460304619f010fcc7b207f1ff38b04439
:103ce0006a49404619f0b2fcb8b16949404619f03a
:103cf000adfc00283dd14ff47a7807f1ff3cbcf1d0
:103d0000000f33dd00273a464ff0010e3b46059485
:103d10007146b64644460e46f4e15d49404619f008
:103d200095fc00285b4b0cbf4ff47a789846e4e78b
:103d300002eb820200eb4202303aede12346059ca1
:103d400003fb07f3424501d208fb02f208920993f4
:103d5000daf80010981800904e684f49daf804001d
:103d6000b047089b099a1344ab617ce700221346d5
:103d7000eae7012208a9304611f0d6ff089bf3e7d5
:103d800002224649304619f05df928b1052244491e
:103d9000304619f057f950b90134e4b2012208a9ac
:103da0005bf8240011f0c0ff089bab615be70222c7
:103db0003c49304619f046f928b105223a493046c7
:103dc00019f040f9b8b9002385f8d1300134e4b2d4
:103dd000042208a95bf8240011f0a6ff089b85f8cf
:103de0004430099b85f845300a9b85f846300b9b8b
:103df00085f8473037e702222c49304619f022f97e
:103e000028b105222a49304619f01cf978b9013445
:103e1000e4b2012208a95bf8240011f085ff089b99
:103e2000049a02fb03f3ab6000236b601be70222e2
:103e30002049304619f006f930b105221e493046b6
:103e400019f000f9002839d10134e4b2012208a99f
:103e50005bf8240011f068ff089b6b600023ab60e7
:103e600001e700bf84da002028d0002084c60000cb
:103e700080969800a8c40000acc40000b8c400003c
:103e8000bcc40000c4c40000c8c40000d4c4000006
:103e9000d8c4000040420f00dcc40000f8c4000099
:103ea000fcc4000008c500000cc5000018c50000d7
:103eb0001cc5000024c5000028c500000222a1493d
:103ec000304619f0bff830b105229f49304619f04d
:103ed000b9f8002836d10134e4b25bf82400437805
:103ee000782b17d0012208a911f01eff9df82000a1
:103ef0000246202820d018d9a0281ad0c0281ed1c8
:103f000010232b75daf800305e682b7d8f490398fb
:103f1000b047a8e683788df81f30c3788df81e303f
:103f2000bdf81e0016f0f1fce2e740b900232b7546
:103f3000e8e720232b75e5e708232b75e2e700234c
:103f40002b75dfe702228249304619f07bf828b151
:103f500005228049304619f075f858b90134e4b2a9
:103f6000012208a95bf8240011f0defe089ba5f8e9
:103f7000d23078e602227849304619f063f828b149
:103f800005227649304619f05df868b90134e4b28b
:103f9000012208a95bf8240011f0c6fe089b049ad0
:103fa00002fb03f32b605ee602226d49304619f0f6
:103fb00049f828b106226b49304619f043f850b948
:103fc0000134e4b2012208a95bf8240011f0acfe30
:103fd000089b6b8247e602226349304619f032f8ab
:103fe00038b105226149304619f02cf800287ff4d9
:103ff0003aae0134e4b2012208a95bf8240011f0c2
:1040000093fe089b332b01d9eb602ce6d5f8c43026
:104010001b685b6834225649039898471de60021c7
:1040200005f1800018f066fbc5f8c80010b32b7cc2
:10403000022b2ad0012b06bfab8907ee103a9fed69
:104040004d7added047ab8ee676aab69db0807eefe
:10405000903af8ee677ab8ee477ac7ee876ac6ee0e
:10406000267afceee77ac5ed217a0a21284615f07a
:1040700031f9f2e5daf800301b683f4903989847b8
:1040800019f058fdc5f8c800d1e7b5f8d23007eef1
:10409000103ad6e7daf800301b683849039c20460e
:1040a0009847daf800301b683549204698472b7c42
:1040b000012b0fd02b7c022b13d0d5f8c4301b68fa
:1040c0005b686a8a2f49039898470221284615f0b1
:1040d00001f9c2e5daf800301b682b4903989847cc
:1040e000e8e7daf800301b68284903989847e4e7c6
:1040f0002e2802d108fb02f200260133dbb2634511
:10410000bff61cae1ef80300a0f13001c9b20929a8
:10411000eed8002e7ff40cae002eeed107eb870711
:1041200000eb4700a0f130071949a1fb0401cc08be
:10413000e3e7daf800301b681649039898478ce5e6
:10414000154d50e530c5000034c500003cc50000e9
:1041500068c500006cc50000382b010074c5000064
:1041600080c5000084c500008cc5000090c500001b
:1041700098c5000000000000c4c50000ecc50000a8
:1041800028c600004cc6000044c6000048c6000017
:0c419000cdcccccc58c6000028d00020bc
:020000040000fa
:10419c0090d800201c0000000000000000a00020af
:1041ac009011000000000000b0db002001000000b6
:1041bc000000000024d000200400000000000000db
:1041cc0024da0020080000000000000008ce0020c7
:1041dc0014010000000000000cd8002004000000b6
:1041ec000000000088d500205000000000000000f6
:1041fc0048d400207c00000000000000b0d9002052
:10420c001000000000000000c8d8002018000000ba
:10421c00000000003cda00200c0000000000000050
:10422c0074d60020410000000000000048da002095
:10423c000800000000000000b6d6002002000000bc
:10424c000000000050da0020040000000000000014
:10425c0090b10020d00700000000000054da0020cc
:10426c001000000000000000aed900200200000089
:10427c000000000064da00200800000000000000cc
:10428c009cd90020110000000000000070d8002014
:10429c001f000000000000006cda0020100000007d
:1042ac00000000008fd8002001000000000000007a
:1042bc00e4db002001000000010000000100000010
:1042cc00ccdb0020040000000100000064000000b2
:1042dc007cda0020040000000000000028d0002040
:1042ec00d80000000000000038d700203400000087
:1042fc000000000080da0020040000000000000034
:10430c00b5d60020010000000000000084da002077
:10431c00040000000000000060b90020400600000e
:10432c000000000088da00200c00000000000000f3
:10433c00a4db0020040000000000000094da002040
:10434c002000000000000000a8db0020020000009c
:10435c0000000000b4da00200c0000000000000097
:10436c0028d30020900000000000000088cb002023
:10437c008002000000000000c0da002028000000cd
:10438c0000000000d0d900200c000000000000004c
:10439c00e0d800201800000000000000acd800207d
:1043ac001c00000000000000e8da002004000000ff
:1043bc0000000000add9002001000000000000004a
:1043cc00ecda00200400000000000000d0db00202c
:1043dc000400000001000000ffffffff28d60020b2
:1043ec004c00000000000000c4db002006000000b0
:1043fc0001000000ffffffffffff0000dcd90020e1
:10440c001800000000000000b8d30020900000004d
:10441c0000000000f0da002018000000000000008e
:10442c00f4d900200c0000000000000010d900207e
:10443c001400000000000000aedb002001000000b2
:10444c0000000000aadb00200400000000000000b7
:10445c0008db0020040000000000000024d900202c
:10446c0014000000000000000cdb0020080000001d
:10447c000000000098d70020280000000000000079
:10448c0014db0020040000000000000010d8002005
:10449c006000000000000000afdb00200100000005
:1044ac00000000006cd700202c0000000000000071
:1044bc00a0bf00200008000000000000b8d60020bb
:1044cc0040000000000000002cda0020100000006a
:1044dc000000000018db00200400000000000000b9
:1044ec00b1db00200100000000000000a0c700208c
:1044fc00e8030000000000001cdb002004000000aa
:10450c0000000000c8d10020c00000000000000026
:10451c0000da00200c0000000000000000d1002098
:10452c00c80000000000000020db00200400000098
:10453c0000000000b2db00200100000000000000c1
:10454c000cda00200c00000000000000b3db00209f
:10455c00010000000000000024db0020040000002b
:10456c0000000000f8d60020400000000000000011
:10457c0088d20020a000000000000000cadb002050
:10458c0002000000010000000100000028db0020f8
:10459c0014000000000000001ccf002008010000e7
:1045ac00000000003cdb00200800000000000000c0
:1045bc00c0d700204c0000000000000044db0020ad
:1045cc000400000000000000f8d8002018000000d3
:1045dc0000000000b4db002010000000010000000f
:1045ec0001010000298b0100c9a4010052990000af
:1045fc00d4db00200400000001000000aaaaaaaa33
:10460c0048db002004000000000000000000002037
:10461c0000a00000000000004cdb00201000000097
:10462c0000000000c4d40020640000000000000062
:10463c005cdb0020140000000000000038d90020d2
:10464c00280000000000000070db002010000000bb
:10465c000000000060d900201400000000000000e1
:10466c0080db0020040000000000000074d9002052
:10467c00280000000000000084db0020080000007f
:10468c0000000000d8db0020040000000100000046
:10469c000400000028d5002060000000000000008d
:1046ac00c0d900201000000000000000dcdb00205e
:1046bc000400000001000000ffffffff8cdb002066
:1046cc000c00000000000000e0db002004000000f3
:1046dc00010000000100000098db00200400000035
:1046ec0000000000d8d500205000000000000000a1
:1046fc009cdb00200400000000000000a0db002078
:10470c00040000000000000018da00200c0000007b
:10471c0000000000000000000000000066666666f5
:020000040000fa
:10472c002de9f04f8db000f58652d37e177e1432f2
:10473c009279013ad21ad2b2ba4280f0748200f560
:10474c00865b0bf1140bcdf81cb083468fe0ff2e6b
:10475c0042d199f84130ff2b21d0284616f002ffa8
:10476c00002843d041f28c1301220bf803200023c4
:10477c0041f28b120bf8023041f27c122bf8023012
:10478c000bf58b531a680421584610f079fe0bf583
:10479c008c532a78c2f3401203f8092f51e099f890
:1047ac004230ff2bd9d199f84330ff2bd5d10121c1
:1047bc0041f28c130bf80310002341f28b120bf80f
:1047cc00023041f27c122bf802300bf58b531a6835
:1047dc00584610f055fedae7284616f0c3fe0028be
:1047ec00c0d1334616f0400f00f0f98041f28c1323
:1047fc0001220bf80320002341f28b120bf802303c
:10480c0041f27c122bf802300bf58b531a680621ff
:10481c00584610f035febae741f28c1301220bf822
:10482c000320002341f28b120bf8023041f27c1270
:10483c002bf802300bf58b531a680721584610f0f1
:10484c001ffe002341f27c122bf8023041f28c1235
:10485c000bf80230079ad3790133dbb2d371177995
:10486c009279013ad21ad2b2ba4280f0dc81013f7d
:10487c003b40079a126841f27a0101fb03231a4666
:10488c00039341f27803d25a002ae3d0984ba3fb4e
:10489c0002139b0903eb0313a2eb83039bb2099353
:1048ac00002bd7d10892039b03f63c07b9467ce05a
:1048bc000bf58b531b68009300231a461946584678
:1048cc0013f0defbbde741f28a1301220bf8032043
:1048dc000bf58b531968584615f0d6fe98e003f08b
:1048ec000f039f0094f842201346c2f380110691e7
:1048fc00002900f0088102f03f0303f10108d309fd
:10490c0002934745c0f0038141f27c133bf803202e
:10491c001ffa88f54ab941f2781300212bf80310dd
:10492c000bf58b530020e3e9020141f278113bf8bf
:10493c0001302b442bf801300bf58b531b68009383
:10494c002b462146584612f038ff41f27c1a3bf8b0
:10495c000a102944029b1a1c18bf012289b258461e
:10496c0014f022fa00232bf80a30c7f1400a1ffa80
:10497c008afa41f28b131bf80330002b00f0d48021
:10498c00002e40f0da8041f28c131bf80330002b20
:10499c0000f0948009f14409039ba9eb0303a3f6ef
:1049ac003c03089a9342bff455af09f140054c46bd
:1049bc0099f84060002e7ff4caae99f841303bb9ab
:1049cc0099f8423023b999f84330002b3ff4efaefd
:1049dc00284616f0c7fd00287ff4c4ae3346c3f357
:1049ec00401341f289120bf80230002b3ff414af44
:1049fc0094f84230db0904937ff45aaf41f28a13e6
:104a0c001bf8033023b994f84030db097ff45baf1b
:104a1c0094f84130c3f30016002e7ff460af13f00e
:104a2c00200f67d194f8423013f0400f62d141f25d
:104a3c008c1300220bf80320ace741f28c130122fb
:104a4c000bf80320002341f28b120bf8023041f2d9
:104a5c007c122bf802300bf58b531a680221584646
:104a6c0010f00efd96e741f28c1301220bf8032097
:104a7c00002341f28b120bf8023041f27c122bf81e
:104a8c0002300bf58b531a680321584610f0f8fcd2
:104a9c0080e741f27c133bf80310002241f28b10ab
:104aac000bf800202bf803205144029b9a1a18bfd4
:104abc00012289b2584614f077f96be741f28b1357
:104acc0001220bf8032041f28c1300220bf8032077
:104adc00e11941f27c133bf80320002a4cd085e00d
:104aec0002f03f0303f10108d309029337460ee0ad
:104afc00f1f0f0f094f842201346c2f380110691c5
:104b0c000029edd10f46db0902934ff04008a8ebca
:104b1c00070a1ffa8afa002e3ff42baf41f28b13cf
:104b2c001bf80330002b88d141f28c131bf8033097
:104b3c00002b7ff425af002e95d0b84508d841f254
:104b4c008c131bf80330002b7ff424af002eb5d050
:104b5c0094f84330db09049341f28b1301220bf8d8
:104b6c00032041f28c1300220bf80320e11941f2cf
:104b7c007c133bf8032052b941f2781300222bf836
:104b8c0003200bf58b500023e0e90223099a049bc8
:104b9c0063b341f268100beb000c0b780024cde9e9
:104bac0004344c782304049c43ea0463cc79002538
:104bbc00cde904458c7843ea0423cd780026cde971
:104bcc000a560c79049e46ea04664c7946ea044679
:104bdc008c7946ea04240a9d2b434bf80040ccf810
:104bec0004300831aaf1080a1ffa8afa41f2781047
:104bfc003bf8003053442bf800300bf58b531b68fb
:104c0c0000935346584612f0d8fdb84503d9069b7d
:104c1c00002b7ff43eaf41f27c133bf803108a4427
:0c4c2c002bf803a0b6e60db0bde8f08f39
:020000040000fa
:104c38002de9f04fc3b0064688469146476838ac20
:104c48009d4d0fcd0fc40fcd0fc495e8030084e828
:104c58000300b8f1010f16ddd9f8045000240df156
:104c6800e00b00bf5bf83410284618f0ebfc8246d6
:104c780088b10134052cf5d133685b682a468f4921
:104c88003846984704e033681b688d49384698478a
:104c980043b0bde8f08f42ab03ebc40414f8243ce6
:104ca800013b032be8d8dfe813f0e2006a010400b7
:104cb8006100b8f1020f0edc33685b68d9f8002098
:104cc80080493846984733685b68d9f800207e49a0
:104cd80038469847dce7d9f8080015f08bfe0546fa
:104ce800e8b1d9f8044002227849204618f0a6f91c
:104cf800d8b9b8f1030f40f3e381d9f80c407449ef
:104d0800204618f09ffc002800f0eb8171492046ee
:104d180018f098fc002814bf00210221d1e1336863
:104d28001b686d4938469847b2e702226b4920460e
:104d380018f084f960b9b8f1030f40f3d4816849d9
:104d4800d9f80c0018f07efcb0fa80f14909cbe1e3
:104d580033681b6863493846984799e733685c6845
:104d6800d9f8003060493846a04791e7b8f1040ff8
:104d780019d033681b685d493846984733681b6803
:104d88005b493846984733681b685a4938469847fc
:104d980033681b6858493846984733681b68574931
:104da8003846984774e7564b1b78dbb9d9f8084062
:104db8005449204618f046fc20b15349204618f0c3
:104dc80041fca8b9514b01221a70d9f80c40204671
:104dd80018f08efb40282ed933681b684c4938469a
:104de800984755e733681b684a49384698474fe75c
:104df8004949204618f026fc20b14849204618f0b9
:104e080021fc18b9414b1c221a70dee744492046a0
:104e180018f018fc20b14349204618f013fc18b9c3
:104e28003a4bff221a70d0e733685b6822463e4946
:104e3800384698472ce73d4d2146284618f0dcfeb9
:104e480072683b4b1a6033685c68d9f808302a46a8
:104e580038493046a0472a4b08221a70364b1e6044
:104e6800c822364b1968202017f004fa10e7b8f169
:104e7800030f0fd033681b683149384698473368a9
:104e88001b6830493846984733681b682e493846ae
:104e98009847fde6d9f8084044b12c49204618f057
:104ea800d1fb002854d114f0b9faf1e633681b6835
:104eb8000c4938469847ebe6c4c001001c56000070
:104ec8007051000098510000d0510000acc800009b
:104ed800e4510000ec510000bc730100b0c80000b0
:104ee800f4510000d0730100045200001852000071
:104ef8004052000070520000a0520000d85200003a
:104f08008fd80020485300004c530000e4db0020f9
:104f180098530000145300005053000058530000e9
:104f280060530000645300006853000074d60020ea
:104f380044da0020c453000074da002078da002034
:104f4800f45300001854000050540000805400002e
:104f5800204615f01bfc10f1060f0ad0b0f1ff3ff8
:104f68007ff496ae33685b682246624938469847b4
:104f78008ee633681b6860493846984788e6b8f17a
:104f8800020f0ad033681b685c4938469847336873
:104f98001b685b49384698477ae627ab1b93412341
:104fa8001c930bab1d9305231e9302ab1f93012388
:104fb800209306a815f0daff28b133681b68514919
:104fc8003846984764e6069818f047fe041e4e4b8c
:104fd800002808bf1c46079818f03ffe33685d6834
:104fe800494b002818bf0346224648493846a84777
:104ff8003368bdf828200192bdf8262000925c682d
:10500800bdf82430089a42493846a047554600243e
:1050180029461ba809f01aff002842d133685c68aa
:10502800229b27aa3b493846a047259b002b0bdc2f
:10503800209b002b1ddc33685b680022364938460c
:10504800984701240135e3e75446dff8e8802c222d
:1050580010a91d9800eb840014f0b6fc33685b6857
:1050680010aa4146384698470134259b9c42eedbfe
:10507800dee7269b002bdedd5446dff8bc802c22c1
:1050880010a91f9800eb041010f0f1fa33685b6860
:1050980010aa4146384698470134269b9c42eedbcd
:1050a800c9e7c2b2012acdd910f1040fcad0002c29
:1050b8007ff4eead33681b68184938469847e7e532
:1050c8000021284618f050fd154a164b00283ff4d9
:1050d80045ae32685468d9f8002013493846a047cd
:1050e800d6e50121ede70021284612f0bdfe0f4a62
:1050f8000f4bebe784540000ac540000c45400008c
:10510800d8540000085500006851000020550000e0
:105118004c5500008c550000c4550000fc5500009b
:10512800445100004c510000fc5100005451000053
:0c5138005c510000ac550000b8550000b0
:020000040000fa
:10514400656e61626c650000656e61626c65640029
:1051540064697361626c650064697361626c65643f
:10516400000000006e6f6e650000000055736167fb
:10517400653a20646e7363203c64656c2f696e66c7
:105184006f2f6f6e2f6f66662f6c6f6f6b75703e2f
:10519400200d0a0055736167653a202573203c6f22
:1051a4006e2f6f66663e203c696e7465726661633d
:1051b400653e203c7374726963742f707265663e39
:1051c4002f3c636c6561723e200d0a0045783a20dd
:1051d4002573206f6e20657468300d0a000000008e
:1051e4007374726963740000707265660000000075
:1051f400636c65617200000025732025730d0a003d
:105204004661696c656420746f2025732025730dd5
:105214000a00000055736167653a20646e73632069
:105224006c6f6f6b7570203c747970653e203c68c0
:105234006f73744e616d653e200d0a0048656c7095
:105244003a203c686f73744e616d653e2855524c2c
:1052540029202d206c6f6f6b20757020666f722073
:10526400686f73746e616d650d0a000048656c703b
:105274003a203c747970653e203a2061206f722098
:105284004120666f722049507634206164647265ef
:105294007373206c6f6f6b75700d0a0048656c70ca
:1052a4003a203c747970653e203a20616161612046
:1052b4006f72204141414120666f72204950763619
:1052c4002061646472657373206c6f6f6b75700d0d
:1052d4000a00000048656c703a203c747970653ea1
:1052e400203a20616e7920666f7220626f746820a4
:1052f4004950763420616e642049507636206164ca
:105304006472657373206c6f6f6b75700d0a0000a7
:10531400646e7363206c6f6f6b75703a20636f6d8e
:105324006d616e6420696e2070726f67726573734d
:105334002e205265747279206c617465722e0d0a88
:1053440000000000410000006100000041414141b3
:10535400000000006161616100000000414e5900dd
:10536400616e7900646e7363206c6f6f6b75703a55
:10537400205b25735d204c6f6f6b757020547970c2
:1053840065206e6f7420737570706f727465642e0f
:105394000d0a0000646e7363206c6f6f6b75703a56
:1053a40020486f7374206e616d6520746f6f206c7c
:1053b4006f6e672e2052657472792e0d0a000000fc
:1053c400646e7363206c6f6f6b75703a20726573d3
:1053d4006f6c76696e6720686f73743a202573204a
:1053e400666f7220747970653a2573200d0a000087
:1053f40055736167653a20646e73632064656c203d
:105404003c686f73744e616d653e7c616c6c200dfd
:105414000a00000048656c703a203c686f73744e53
:10542400616d653e2855524c29202d2052656d6fc3
:1054340076652074686520656e74727920696620cb
:10544400657869737473200d0a00000048656c70f8
:105454003a20616c6c202d2052656d6f7665206159
:105464006c6c20746865207265736f6c766564205b
:10547400656e747279200d0a00000000616c6c0086
:105484005b25735d206e6f742070617274206f668b
:105494002074686520444e53204361636865206529
:1054a4006e747279200d0a00496e636f6d706c65bd
:1054b400746520636f6d6d616e64200d0a000000d9
:1054c40055736167653a20646e736320696e666f15
:1054d400200d0a0048656c703a20646973706c6131
:1054e400792074686520444e5320636163686520a5
:1054f400656e7472792064657461696c73200d0a39
:1055040000000000444e5320436c69656e742069aa
:105514007320646f776e210d0a000000444e5320ff
:10552400436c69656e74204946202d20537472695a
:1055340063743a2025732c20507265666572726517
:10554400643a2025730d0a00444e5320436c696568
:105554006e74202d2074696d653a2025642c2070aa
:10556400656e64696e673a2025642c2063757272d7
:10557400656e743a2025642c20746f74616c3a2033
:1055840025640d0a00000000486f73746e616d6538
:10559400203d202573200d0a54696d656f757420b4
:1055a4003d202564200d0a0049507634203d2573a2
:1055b4000d0a000049507636203d2025730d0a005f
:1055c4002d2d2d2d2d2d2d2d2d2d2d2d2d2d2d2d07
:1055d4002d2d2d2d2d2d2d2d2d2d2d2d2d2d2d2df7
:1055e4002d2d2d2d2d2d2d2d2d2d2d2d2d2d2d2de7
:1055f4002d2d2d2d0d0a00004e6f20444e532043b7
:105604006c69656e7420436163686520656e7472ad
:10561400696573200d0a0000496e76616c69642027
:10562400496e70757420436f6d6d616e64203a5bd2
:0c563400202573205d200d0a000000bf3f
:020000040000fa
:105640002de9f04f2ded028bd2e9008997b0cde91d
:105650000c138b6808930b690f90d1e900b6149373
:10566000cd68002200234046494615f0f3fc40b9be
:105670001bf0040f32d11bf00803059330d0202318
:1056800003e089f0004399462d232b70089b03f11a
:10569000ff3a012305934c4929f0004300208b4237
:1056a00008bf80451fd10d9b413b192b059b94bf23
:1056b000464947492b44184618f0a2fa284617f0e5
:1056c0001bffcdf800b00246089b0f98294611f049
:1056d00055fb17b0bdec028bbde8f08f2b23d4e750
:1056e000ddf820a0d7e7994208bf404509d20d9bbd
:1056f000413b192b059b94bf364937492b4418462b
:10570000dae7002200234046494615f063ff9fed8b
:105710002c7b8ded027b48b300240d9818f0e3f943
:10572000002ec3b20993c0f2d781672b5ad1002e45
:1057300008bf0126231d02dbb442c0f2c6816527e3
:1057400061e09ded067b8ded027b01340022234b51
:10575000dde902010af060fa42464b46cde9060156
:1057600015f05cfc0028ecd000271fe00446ede7b4
:1057700014f5967f11da87b90022194b4046494645
:105780000af04afa002280468946154bdde90201fb
:105790000af042facde902010127dde90201002207
:1057a0000e4b06f063fbcde90201013cdde902236b
:1057b0004046494615f04efc0028d9d1ade700bf60
:1057c000000000000000f03f0000f07f74da0100ec
:1057d00078da01007cda010080da01000000244060
:1057e00000005043099f662f06f101060bd1002ce3
:1057f00004da9fedbd7b8ded027b0024099b672bb6
:1058000018bf361966279ded027bcde906898ded1f
:105810000a7b00230e93dde90a23dde9060106f089
:1058200025fb41ec100b0df0fbff51ec100bb0ee23
:10583000408af0ee608a14f08dfab0ee480af0ee7d
:10584000680a069b1093079b159083f00043119301
:105850009ded0a1b9ded102b16f04cfb53ec102b0d
:1058600083f000430793dde90a01a34b8ded060a9f
:10587000002206f0fbfa0e9b01339e42cde90a019d
:105880000e93c8d100229d4b0af0c6f9cde90a015a
:1058900002460b46dde9060115f0dcfb002840f06e
:1058a0008180dde90a23dde9060115f093fe10b1e0
:1058b000159bda0776d5dde90a234046494605f00f
:1058c0005afd0022cde906018b4bdde902010af009
:1058d000a3f9dde90623cde90a0115f0f7f900285f
:1058e00065d0662f04f1010465d10136a146a9eb0c
:1058f00006034ff00008059e1093cdf80880109b1a
:10590000994540f08180029b002b00f0c880a819c7
:105910000022652f027029d1149b1499013b9442f7
:10592000ea54c1f1030ebcbf644201220a21002cdb
:1059300040f0bc800eeb030cbcf1000f00f3b6800e
:10594000002a03f1ff3114bf2d222b226a540d9a35
:10595000023b413a192a05eb030198bf45279e42b5
:105960000f70aaf1020a01da18f04af90bf00303ea
:10597000022b7ff4a3aebaf1000f7ff79fae28464b
:1059800017f0bafd05eb0a03059a824240f39980ad
:10599000059b2b4418465246302117f037ff002351
:1059a00008938be69fed527b8ded0a7b83e79ded9f
:1059b000027b8ded0a7b652f14bfa1464ff00009d5
:1059c00095e7029a52b9b9f1000f07da0e992e2223
:1059d0006a54012201360af1ff3a029205eb0801ee
:1059e000aa193144302001e002f8010b9142fbd1a9
:1059f00008eb06023033aaeb080808f1ff3a561c00
:105a0000ab544ff0000828e00c9b0e961b69053b39
:105a1000b3427ff678afdde90a23dde9060106f03f
:105a200025fa41ec100b0df0fbfe51ec100bb0ee23
:105a3000408af0ee608a14f08df90bf0100209280c
:105a40000346a8bf09230243bbd1099a672ab8d1ec
:105a5000b9f1000fc2da08f10108069b1293079b07
:105a6000b0ee480af0ee680a83f0004313939ded10
:105a70000a1b9ded122b16f03dfa53ec102b83f010
